:020000040800F2
:1000000000040020B9020008BB020008BB0200087F
:10001000BB020008BB020008BB020008BB020008CC
:10002000BB020008BB020008BB020008C127000891
:10003000BB020008BB020008BB020008BB020008AC
:10004000BB020008BB020008BB020008BB0200089C
:10005000BB020008BB020008BB020008BB0200088C
:10006000BB020008BB020008BB020008BB0200087C
:10007000BB020008BB020008BB020008BB0200086C
:10008000BB020008BB020008BB020008BB0200085C
:10009000BB020008BB020008BB020008BB0200084C
:1000A000BB020008BB020008BB020008BB0200083C
:1000B000019C0008BB020008BB020008BB0200084C
:1000C000BB020008BB020008BB020008BB0200081C
:1000D000BB020008BB020008BB020008F196000842
:1000E000BB020008BB020008BB020008BB020008FC
:1000F000BB020008BB020008BB020008BB020008EC
:10010000BB020008BB020008BB020008BB020008DB
:10011000BB020008BB020008BB020008BB020008CB
:10012000BB020008BB020008BB020008BB020008BB
:10013000BB020008BB020008BB020008BB020008AB
:10014000BB020008BB020008BB020008BB0200089B
:10015000BB020008BB020008BB020008BB0200088B
:10016000BB020008BB020008BB020008BB0200087B
:10017000BB020008BB020008BB020008BB0200086B
:10018000BB020008BB020008BB020008BB0200085B
:10019000BB020008BB020008BB020008BB0200084B
:1001A000BB020008BB020008BB020008BB0200083B
:1001B000BB020008BB020008BB020008BB0200082B
:1001C000BB020008BB020008BB020008BB0200081B
:1001D000BB020008BB020008BB020008BB0200080B
:1001E00072B6274880F30888264880F30988264895
:1001F0004EF60851CEF200010860022080F3148808
:10020000BFF36F8F09F0CCFD09F0C2F84FF0553005
:100210001E491B4A91423CBF41F8040BFAE71C49B6
:10022000184A91423CBF41F8040BFAE719491A4AAF
:100230001A4B9A423EBF51F8040B42F8040BF8E700
:1002400000201749174A91423CBF41F8040BFAE7D6
:1002500009F05EFD09F09CFD134C144DAC4203DA2D
:1002600054F8041B8847F9E707F02AF8104C114DA1
:10027000AC4203DA54F8041B8847F9E709F080BD63
:1002800000040020000800200000000800000020FA
:100290000004002000CB000800080020DC0800203B
:1002A000E0080020F0240020E0010008E001000840
:1002B000E0010008E001000892E700F000F8FEE726
:1002C0002DE9F04FC1F80CD0C3689D46BDE8F08F12
:1002D000002383F311882846A047002009F020F866
:1002E000FEE702F0FDFA00DFFEE70000844641EA87
:1002F000000313F003036DD1403A41D351F8043B9E
:1003000040F8043B51F8043B40F8043B51F8043BEF
:1003100040F8043B51F8043B40F8043B51F8043BDF
:1003200040F8043B51F8043B40F8043B51F8043BCF
:1003300040F8043B51F8043B40F8043B51F8043BBF
:1003400040F8043B51F8043B40F8043B51F8043BAF
:1003500040F8043B51F8043B40F8043B51F8043B9F
:1003600040F8043B51F8043B40F8043B51F8043B8F
:1003700040F8043B51F8043B40F8043B403ABDD2FE
:10038000303211D351F8043B40F8043B51F8043BA0
:1003900040F8043B51F8043B40F8043B51F8043B5F
:1003A00040F8043B103AEDD20C3205D351F8043B2F
:1003B00040F8043B043AF9D2043208D0D2071CBFFB
:1003C00011F8013B00F8013B01D30B880380604624
:1003D000704700BF082A13D38B078DD010F003039A
:1003E0008AD0C3F10403D21ADB071CBF11F8013B0A
:1003F00000F8013B80D331F8023B20F8023B7BE759
:10040000043AD9D3013A11F8013B00F8013BF9D283
:100410000B7803704B7843708B788370604670471D
:10042000A2EB0300704700BF02780B78012A28BFB7
:100430009A42F5D16DE9044540EA0104CDE902672D
:100440006FF0000C4FEA447212B380EA010414F01A
:10045000070F6AD100F0070420F0070004F003053D
:1004600021F007014FEAC505F0E8042314F0040F5A
:10047000F1E804670CFA05F462EA040266EA04068D
:100480000AD063EA0403624667EA0407664603E0AB
:10049000F0E80423F1E8046782FA4CF582EA0604E6
:1004A000A4FA8CF46CBB83FA4CF583EA0705A5FA31
:1004B0008CF595B950E9022351E9026782FA4CF5AF
:1004C00082EA0604A4FA8CF483FA4CF583EA070561
:1004D000A5FA8CF52543DBD09CB92DBAB5FA85F485
:1004E00024F0070427FA04F1DDE9026723FA04F394
:1004F00003F0FF0001F0FF01FDE80445A0EB01005F
:10050000704724BAB4FA84F424F0070426FA04F1FC
:10051000DDE9026722FA04F202F0FF0001F0FF01B8
:10052000FDE80445A0EB0100704714F0030F3CD137
:1005300010F0030428D150F8082B51F8083B82FA38
:100540004CF582EA0305A5FA8CF55DB950F8042C48
:1005500051F8043C82FA4CF582EA0305A5FA8CF5C1
:10056000002DE8D02DBAB5FA85F424F0070423FA5B
:1005700004F122FA04F202F0FF0001F0FF01FDE8AD
:100580000445A0EB010070474FEAC40420F00300CB
:1005900050F8082B21F0030151F8083B0CFA04F441
:1005A00062EA040263EA0403C9E710F003041AD004
:1005B000A1EB040120F00300E40750F8042B06D05F
:1005C0000FD28B785FFAA2F4E41A06D12BB1CB7864
:1005D0005FFAB2F4E41A00D11BB920465DF8104B63
:1005E000704701F1040150F8042BCC0721F00301FE
:1005F00051F8043B48D824D222F07F4482FA4CF5CB
:1006000094EA1325A5FA8CF50AD165B951F8043B93
:1006100084EA0204B4EB036F0ED150F8042BEBE72D
:100620004FEA132355E035F07F454DD10878FDE8BA
:100630000445C0F1000070474FEA126203F0FF0367
:1006400047E002EA1C4482FA4CF594EA1345A5FA05
:100650008CF50AD165B951F8043B84EA0204B4EB85
:10066000034F0CD150F8042BEBE74FEA134330E073
:1006700015EA1C4528D10B884FEA124229E04FEABF
:10068000124203EA1C4324E002F0FF0482FA4CF514
:1006900094EA1365A5FA8CF50AD165B951F8043BC3
:1006A00084EA0204B4EB032F09D150F8042BEBE7E2
:1006B0004FEA13630DE015F0FF0F05D10B684FEA09
:1006C000122223F07F4304E04FF00000FDE80445D0
:1006D000704712BA1BBA82FA4CF482EA0304A4FAF5
:1006E0008CF5B5FA85F402FA04F203FA04F34FEA42
:1006F0001260FDE80445A0EB1360704700000000A5
:10070000202383F31188094B9A6822B1002000232B
:1007100083F311887047064A92699A60916BD96099
:1007200093630120002383F3118870472C08002075
:10073000B0090020000000000000000000000000E0
:10074000202383F31188044B9A690023506B536371
:1007500083F31188704700BFB0090020000000003B
:100760004FF08043091A5B6A181A884201D20020B0
:1007700070470449044A054B054808600120107081
:1007800018707047041C0020A81C0020081C0020C2
:10079000C0A00008000000000000000000000000F1
:1007A00030B4202383F311880B4CD4E9003549423F
:1007B000281A0840821A9A4207D3954205D36260EC
:1007C000002383F3118830BC70470020002383F39B
:1007D000118830BC704700BF50130020000000009B
:1007E0000B4B0C4AD91D21F00701CB1AC3F178033A
:1007F00010B4002002F10C04DB084B60516008606B
:10080000C2E90344106010BC90605061704700BFA3
:10081000281C00200C1C002000000000000000002C
:10082000054B00220421C3E90033C3E90411DA6057
:100830009A619A60704700BF100800200000000015
:10084000FFF7EEBF00000000000000000000000005
:1008500000207047000000000000000000000000C1
:10086000034B00210422C3E901221960D9607047BB
:1008700074080020000000000000000000000000DC
:1008800003681A1D02601B68184700BF00000000C3
:10089000016803460A46081D10B4186052F8084B58
:1008A00048681A60234610BC184700BF00000000CB
:1008B000026830B40346111D5068196014689168CD
:1008C00002F10C051D60234630BC184700000000F3
:1008D000036870B404461A1DD3E9010122601D6843
:1008E000DA6803F1100626602B4670BC184700BF7B
:1008F000036870B404461D1DD3E90101DA68256060
:100900001D6803F11406AC461B69266070BC604785
:1009100030B40F4B0F4A1A6002F1080503F12004AE
:10092000C3E9022203F13000002203F14001C3E9D0
:1009300008445D60C3E90C0030BCC3E91011C3E991
:1009400006221A611A759A629A639A64704700BF08
:100950008C0800205C09002000000000000000005E
:1009600030B40F4B0F4A1A6002F1100503F1200456
:10097000C3E9022203F13000002203F14001C3E980
:1009800008445D60C3E90C0030BCC3E91011C3E941
:1009900006221A611A759A629A639A64704700BFB8
:1009A0008C0800205C09002000000000000000000E
:1009B00030B40A4B0A4A1A6002F1100503F1180418
:1009C000002103F12000C3E906445D60C3E902226F
:1009D00030BCC3E908001961197570474C08002044
:1009E000381400200000000000000000000000009B
:1009F000FFF7DEBF00000000000000000000000064
:100A0000FFF7D6BF0000000000000000000000005B
:100A1000024B0022C3E900339A607047681400203B
:100A2000024B0122C3E900339A607047841500200D
:100A3000704700BF00000000000000000000000040
:100A4000024B0022C3E900339A60704784150020EE
:100A5000044B00224FF4A4700421C3E901011A6081
:100A6000DA60704748140020000000000000000019
:100A70000B4B0C4AD91D21F00701CB1AC3F5CC63EF
:100A800010B4002002F10C04DB084B6051600860D8
:100A9000C2E90344106010BC90605061704700BF11
:100AA00098150020B813002000000000000000008E
:100AB00008B5FFF745FE024A024B12601B6008BDF5
:100AC000080800200C0800200000000000000000C2
:100AD000FFF736BE0000000000000000000000002C
:100AE000FFF7F6BF0000000000000000000000005B
:100AF000FFF7EEBF00000000000000000000000053
:100B0000FFF7E6BF0000000000000000000000004A
:100B1000FFF7DEBF00000000000000000000000042
:100B20000649074A074B09600020C2E90022C3E9D1
:100B30000033496090609860704700BF0008002053
:100B40002C0800203C0800200000000000000000ED
:100B5000044A054B12600021C3E9003352609960DA
:100B6000704700BF000800202C0800200000000093
:100B7000FFF7EEBF000000000000000000000000D2
:100B8000024B0022C3E900339A6070472C08002012
:100B9000044A054B12600021C2E90121C3E9003378
:100BA000996070472C0800203C08002000000000DD
:100BB000FFF7E6BF0000000000000000000000009A
:100BC000024B0022C3E900339A6070477815002079
:100BD000FFF7F6BF0000000000000000000000006A
:100BE000FFF7EEBF00000000000000000000000062
:100BF000FFF7E6BF0000000000000000000000005A
:100C0000024B0122C3E900339A6070477815002037
:100C1000014B00221A607047D81C00200000000021
:100C200008B10020704710B4044A054C054B012060
:100C30002070107010BC1960704700BF081C0020A5
:100C4000A81C0020041C0020000000000000000080
:100C5000014B03221A607047AC1C0020000000000A
:100C6000044B01214FF080421960516A536A994246
:100C7000FCD07047AC1C0020000000000000000009
:100C8000074B01221A60202383F3118862B672B6E3
:100C900083F3118862B6002383F3118862B670472C
:100CA000AC1C00200000000000000000000000005C
:100CB0000B4B30B403F114002025002453F8042B0F
:100CC0004AB185F3118892F8211041F0040182F8AD
:100CD000211084F311888342F0D130BC704700BFEB
:100CE000C41C002000000000000000000000000004
:100CF00010B3F0B585B06C46104F2246A7FB001329
:100D0000DB0803EB8301A0EB410106463031C9B299
:100D1000092E1546184602F8011BEFD8A24209D940
:100D2000074E01E015F8011D30680368DB6898473D
:100D3000AC42F7D105B0F0BD704700BFCDCCCCCCF4
:100D4000001C002000000000000000000000000067
:100D500028B9044B186803683021DB681847FFF78F
:100D6000C7BF00BF001C0020000000000000000002
:100D7000202383F31188064A064913688B4202D266
:100D8000591C18701160002383F31188704700BF4D
:100D9000C01C0020C01C002000000000000000005B
:100DA00008B548694130C0B2FFF7E2FF002008BD36
:100DB00008B53020FFF7DCFF45F2AA5008BD00BFA0
:100DC00010B50446C0B2FFF7D3FF204610BD00BFE8
:100DD00038B50D460446C0B2FFF7CAFFE8B2FFF7C8
:100DE000C7FF204638BD00BF000000000000000023
:100DF00070B50E460446C0B21546FFF7B9FFF0B213
:100E0000FFF7B6FFE8B2FFF7B3FF204670BD00BFA3
:100E1000F8B50F460446C0B216461D46FFF7A8FFB8
:100E2000F8B2FFF7A5FFF0B2FFF7A2FFE8B2FFF7B5
:100E30009FFF2046F8BD00BF00000000000000003A
:100E400008B55A20FFF794FF024B01221A704AF6A8
:100E5000552008BD741300200000000000000000B1
:100E60004320FFF785BF00BF000000000000000026
:100E70004220FFF77DBF00BF00000000000000001F
:100E80004120FFF775BF00BF000000000000000018
:100E90000078FFF76DBF00BF0000000000000000F9
:100EA000FFF7F6BF00000000000000000000000097
:100EB00070B5017889B10A4D044628680368DB687B
:100EC000984714F8011F0029F7D1286805490368DD
:100ED000BDE870405B6802221847014DF5E700BF8E
:100EE000001C0020CCB7000800000000000000003B
:100EF000017859B138B5064D044628680368DB68A7
:100F0000984714F8011F0029F7D138BD704700BF7A
:100F1000001C002000000000000000000000000095
:100F2000F0B40D4E0D4F35683B4605E013F8014B0C
:100F300010F8012B944206D19D42F7D8007810B9E1
:100F40003760F0BC7047064C064A074B0120207002
:100F50001070F0BC19607047C01C0020B01C00204D
:100F6000A81C0020081C0020041C00200000000019
:100F70000F4AF8B501260F4F16600725002425FA01
:100F800004F313F0010F06FA04F220460DD057F8CF
:100F9000243025EA020501349847002DEFD1BDE841
:100FA000F84005490548FFF7BBBF0134E7E700BF3C
:100FB000AC1C0020BCC20008D4A00008E8A00008B7
:100FC00070B5084D4C24286803682D21DB689847CC
:100FD000013CF8D1286804490368BDE870405B68AB
:100FE00002221847001C0020CCB7000800000000B7
:100FF000084A10B4D2E900344942201A0840984205
:1010000004D3844202D310BC50607047002010BC4F
:10101000704700BF501300200000000000000000D7
:1010200008B52022034682F31188006828B10268BF
:101030001A60002383F3118808BDDA68002AF8D00B
:10104000D3E901019047002383F3118808BD00BF55
:101050002DE9F0413B4E3C4B3C4C012232602025B7
:101060000422002085F3118821681960236080F331
:1010700011886168013A0B44F4D10223DFF8CC8077
:10108000334F336004254046FFF7CAFF003818BFCE
:1010900001203946FFF7C4FD002850D1013DF2D1AF
:1010A00003232A483360FFF7BBFFB0FA80F02949D9
:1010B0004009FFF7B5FD002841D1234B042203F17D
:1010C0001007326020201A4680F31188216843F807
:1010D000041B226085F31188BB42F4D10523DFF89D
:1010E0006C801B4F336004254046FFF799FF0038A2
:1010F00018BF01203946FFF793FD00BB013DF3D136
:10110000062312483360FFF78BFFB0FA80F01149D5
:101110004009FFF785FD90B907210F4A0B48316060
:101120000423C4E901332560E260FFF779FFB0FAD8
:1011300080F0BDE8F04109494009FFF771BDBDE805
:10114000F08100BFAC1C002068150020740800204E
:10115000ECA00008F8A000085108000808A1000849
:10116000202383F31188044B9B695A6B1043586307
:10117000002383F311887047B009002000000000AD
:10118000202383F31188034601E08B4207D01A46DF
:101190001B688342F9D1002383F3118870471B68D1
:1011A0001360002383F31188704700BF0000000024
:1011B0002DE9F043364CDFF8E880246002228BB042
:1011C000C8F80020202787F31188324920688B69EE
:1011D00005900DF114090120002506934FF0FF330F
:1011E000CDE908530790C4F8009085F3118887F380
:1011F0001188886921680091CDE90102CDE9035386
:10120000C4F800D085F3118887F31188206822493B
:10121000001B18BF0120FFF703FD20B185F31188E3
:101220000BB0BDE8F083064680F3118803234946DE
:101230002046C8F80030FFF7A3FF87F31188206825
:101240001549001B18BF0120FFF7EAFC054620B135
:1012500086F311880BB0BDE8F08380F31188042376
:1012600069462046C8F80030FFF78AFF87F31188E7
:1012700020680A49001BB0FA80F04009FFF7D0FC53
:101280000028CBD180F311880BB0BDE8F08300BFFC
:1012900008080020B009002024A1000830A100089F
:1012A000AC1C002000000000000000000000000056
:1012B0000E4A0F4B5268D3F87C38816830B4D31A89
:1012C000D0E90445C2685B1A01324168C260E41883
:1012D0000268836045F100058B4288BF43609342FA
:1012E000C0E9044538BF036030BC7047001000E01F
:1012F000B009002000000000000000000000000015
:10130000014B5B6883607047001000E00000000044
:10131000836841681A4AF0B4D0E90475022643F89C
:101320002C1C0124002143E91B750568C06803F8E3
:10133000271C03F8286C03F8264C43F8382C546912
:1013400043F8400C43F80C0C43F8305CA3F16C00FC
:101350000C4D43F83C0C43E90511A3F1480043F858
:101360004C5CA3F11C01A3F1200543F8344C20612F
:10137000506143E9085143F8181CF0BC704700BFA6
:10138000B0090020D10200080000000000000000A9
:10139000202383F3118890F82030072B0DD8DFE845
:1013A00003F0270C0C2308040C08426A93680133ED
:1013B0009360D0E9003213605A6010B400224FF0FD
:1013C000FF3481680C4B446280F820201B689A68C7
:1013D0008A42FBD25A680021C0E90032106058608E
:1013E00081F3118810BC7047436A00221A60E4E759
:1013F000002383F311887047B0090020000000002B
:1014000000228168064B80F820201B689A688A4277
:10141000FBD25A68C0E9003210605860704700BFC4
:10142000B0090020000000000000000000000000E3
:1014300003460068834206D002681A6000215360A8
:101440004162FFF7DDBF70470000000000000000B0
:101450000F4B1A7DCAB970B5D3E900611A698C1BAC
:10146000B2EBA40F0ED09D682C1D9C60A142286099
:1014700002F10102074898BF9E601A61FFF7D8FF8A
:10148000002070BD4FF0FF3070BD6FF0010070475D
:101490004C0800206C080020000000000000000044
:1014A00038B50F4B1A7DBAB9D3E9004519692A1B23
:1014B000B1EBA20F0DD0DA68043A944288BF2A1F1C
:1014C000DA600131106007481961FFF7B1FF0020B1
:1014D00038BD4FF0FF3038BD6FF0010038BD00BFA0
:1014E0004C0800206C0800200000000000000000F4
:1014F00038B50F4B1A7DBAB9196991B1DA685C68D1
:1015000015680432A242DA6001F1FF31056028BF9C
:101510001A68084828BFDA601961FFF789FF0020C0
:1015200038BD4FF0FF3038BD6FF0010038BD00BF4F
:101530004C080020640800200000000000000000AB
:1015400038B50446006884420AD06FF0010503688C
:1015500023605C604562FFF753FF2068A042F6D12C
:1015600038BD00BF000000000000000000000000C7
:10157000054B1868984206D002681A600021536033
:101580004162FFF73DBF70470008002000000000E7
:10159000426B90F8203011430A2B416309D00B2B8A
:1015A00000D07047436A8B43FBD100234362FFF7AF
:1015B00027BF436A1942F8D1704700BF00000000FE
:1015C00070B50468A0420FD006460D46E3682B4371
:1015D000E36015B123691D4203D0D4E90101FFF78F
:1015E000D7FF2468A642F1D170BD00BF0000000003
:1015F000114B0146006830B49D69CB68AB638842EB
:1016000016D0EC6B4BB11A68934203D092689442A7
:1016100038BF1446DB68002BF5D1826B0368AC60E1
:101620000B6030BC5960C1E902028163FFF7E8BE7C
:10163000002330BC83607047B00900200000000028
:1016400083680133002B836000DD704703681A68EC
:1016500002600021506018465962FFF7D1BE00BFFA
:1016600038B50B6A002B0C464B6A2FDB190714D4D4
:101670009A0623D4C269A26000F11401E160D4602B
:10168000C46103F0120343F0010363623030FFF7DB
:10169000D7FF236A0133236238BDD4E90025016AEC
:1016A0002A6000F11403556000220125C4E90231CB
:1016B0008C600462C4E904226562E7E7026AE260C2
:1016C00000F11401A16094600462DAE703F01A03E8
:1016D0004B6201F11800BDE83840FFF7B1BF00BF11
:1016E00010B41E4AD16983B08142019011D00346E3
:1016F000D0E90010016019681C3200249142486052
:10170000DC6003D09A688B6813448B6003B010BC14
:10171000704710460B6840F81C3F00248342586015
:10172000CC6016D08C689968926A0C444FF0804166
:101730009C604B6A991A8C42E8D9D31A2344012B36
:1017400098BF8C1C4FF0804322445A6303B010BCF6
:1017500070474FF08043DC60D8E700BFB00900203D
:10176000F0B41F4D2F46022957F81C4F4FF080460A
:1017700038BF0221BC42C0E90323736A22D0AA6A9F
:101780009B1AC91816D2A3688B4203D917E02468A4
:10179000C91AA3688B42FAD36368C0E90043186092
:1017A00060608160A3684FF0FF32591AA1606A62DD
:1017B000F0BC7047A2682468891AA368EAE70A4463
:1017C0007263E7E7AB62CF1800220223C5E9070086
:1017D000C0E90044816077633261F360E8E700BFED
:1017E000B009002000000000000000000000000020
:1017F000EFF30583202383F3118870470000000076
:10180000C20710B412D52A4B1968994243D000225E
:101810000968994202F10102FAD14C688C4237D032
:1018200064689C4202F1FF32FAD18ABB830714D567
:101830001F4B1C4654F81C1FA14232D000220968DD
:10184000A14202F10102FAD11B6A8B4220D05B68EF
:10185000A34202F1FF32FAD1D2B910F0040015D040
:10186000134B1A699A424FF0000004D012699A4251
:1018700000F10100FAD15A699A4204D052699A42A1
:1018800000F1FF30FAD1003818BF012010BC7047BA
:10189000012010BC70475C689C4218BF0022BFD179
:1018A000C4E71B6AA34218BF0022D0D1D5E700BF0E
:1018B000B00900200000000000000000000000004F
:1018C00070B5244E01203060202585F31188FFF784
:1018D00097FF002383F3118880F001001E49C0B2F6
:1018E000FFF79EF900B170BD04460220306085F319
:1018F0001188FFF785FF84F3118880F001001749F4
:10190000C0B2FFF78DF904460028ECD10323336001
:1019100085F311880420FFF773FF84F3118880F0AA
:1019200001000F49C0B2FFF77BF904460028DAD165
:101930000423336085F311880820FFF761FF84F3E7
:10194000118880F00100BDE870400649C0B2FFF781
:1019500067B900BFAC1C002040A1000858A10008D6
:101960007CA1000898A10008000000000000000011
:10197000FEE700BF000000000000000000000000C3
:1019800038B54B4B4B4C4C4801251D60FFF7B0FA66
:101990002846FFF7ADF92046FFF78AFA4748FFF7D8
:1019A000A7FA2846FFF7A4F92046FFF781FA444832
:1019B000FFF79EFA2846FFF79BF92046FFF778FAD3
:1019C0004048FFF795FA2846FFF792F92046FFF7BF
:1019D0006FFA3D48FFF78CFA2846FFF789F9204651
:1019E000FFF766FA3948FFF783FA2846FFF780F9D0
:1019F0002046FFF75DFA3648FFF77AFA2846FFF7E8
:101A000077F92046FFF754FA3248FFF771FA284673
:101A1000FFF76EF92046FFF74BFA2F48FFF768FAF9
:101A20002846FFF765F92046FFF742FA2B48FFF7F3
:101A30005FFA0820FFF75CF92046FFF739FA2848DB
:101A4000FFF756FA2846FFF753F92046FFF730FA1A
:101A50002448FFF74DFA2846FFF74AF92046FFF7DA
:101A600027FA2148FFF744FA2846FFF741F92046B4
:101A7000FFF71EFA1D48FFF73BFA2846FFF738F933
:101A80002046FFF715FA1A48FFF732FA2846FFF703
:101A90002FF92046FFF70CFA1648FFF729FA2846D7
:101AA000FFF726F92046BDE83840FFF701BA00BF2E
:101AB000AC1C002020B80008B0A10008DCA1000880
:101AC00008A2000834A2000860A200088CA2000846
:101AD000B8A20008E4A2000810A300083CA3000874
:101AE00068A3000894A30008C0A30008ECA30008A2
:101AF00018A4000844A40008000000000000000032
:101B000038B5194B19481A4C01251D60FFF7D0F95B
:101B10001848FFF7EDF92846FFF7EAF82046FFF7E7
:101B2000C7F91548FFF7E4F91448FFF7C1F914485D
:101B3000FFF7DEF92846FFF7DBF82046FFF7B8F994
:101B40001048FFF7D5F90220FFF7D2F82046FFF73B
:101B5000AFF90D48FFF7CCF90020FFF7F9F8204660
:101B6000BDE83840FFF7A4B9AC1C002070A4000801
:101B700020B80008A4A40008D0A40008FCA4000811
:101B800004A5000830A500085CA5000800000000BE
:101B900070B5344D344C354801232B60FFF7A8F95C
:101BA0004FF40860FFF7A4F82046FFF781F90223FD
:101BB0002F482B60FFF79CF94420FFF799F8204647
:101BC000FFF776F903232B482B60FFF791F91420D8
:101BD000FFF78EF82046FFF76BF9042626482E60A3
:101BE000FFF786F90C20FFF783F82046FFF760F92E
:101BF000052322482B60FFF77BF91020FFF778F8C8
:101C00002046FFF755F906231D482B60FFF770F9B2
:101C10000820FFF76DF82046FFF74AF90723194817
:101C20002B60FFF765F93046FFF762F82046FFF7B3
:101C30003FF9082314482B60FFF75AF91420FFF7E7
:101C400057F82046FFF734F9092310482B60FFF7B7
:101C50004FF92820FFF74CF82046BDE87040FFF709
:101C600027B900BFAC1C002098A5000888A5000873
:101C7000A0A50008B0A50008C0A50008D0A50008D0
:101C8000E0A50008F0A5000800A6000810A60008BE
:101C900038B5934B934C944801251D60FFF728F904
:101CA0002020FFF725F82046FFF702F98F48FFF7BD
:101CB0001FF942F21070FFF71BF82046FFF7F8F803
:101CC0008B48FFF715F92020FFF712F82046FFF7A1
:101CD000EFF88848FFF70CF92020FFF709F82046B5
:101CE000FFF7E6F88448FFF703F90220FFF700F852
:101CF0002046FFF7DDF88148FFF7FAF80020FFF7EC
:101D000027F82046FFF7D4F87D48FFF7F1F80020C8
:101D1000FFF71EF82046FFF7CBF87A48FFF7E8F800
:101D20000020FFF715F82046FFF7C2F87648FFF7C6
:101D3000DFF82846FEF7DCFF2046FFF7B9F87348C6
:101D4000FFF7D6F82846FEF7D3FF2046FFF7B0F896
:101D50006F48FFF7CDF82846FEF7CAFF2046FFF789
:101D6000A7F86C48FFF7C4F82846FEF7C1FF2046E5
:101D7000FFF79EF86848FFF7BBF82846FEF7B8FF64
:101D80002046FFF795F86548FFF7B2F80020FEF708
:101D9000DFFF2046FFF78CF86148FFF7A9F82846D7
:101DA000FEF7A6FF2046FFF783F85E48FFF7A0F88E
:101DB0000020FEF7CDFF2046FFF77AF85A48FFF7DC
:101DC00097F82846FEF794FF2046FFF771F857482A
:101DD000FFF78EF82846FEF78BFF2046FFF768F8DE
:101DE0005348FFF785F82846FEF782FF2046FFF7A5
:101DF0005FF85048FFF77CF82846FEF779FF204649
:101E0000FFF756F84C48FFF773F82846FEF770FFC7
:101E10002046FFF74DF84948FFF76AF80020FEF723
:101E200097FF2046FFF744F84548FFF761F828463A
:101E3000FEF75EFF2046FFF73BF84248FFF758F8F1
:101E40000020FEF785FF2046FFF732F83E48FFF7F7
:101E50004FF80020FEF77CFF2046FFF729F83B48AB
:101E6000FFF746F80020FEF773FF2046FFF720F843
:101E70003748FFF73DF80020FEF76AFF2046FFF7DE
:101E800017F83448FFF734F80020FEF761FF2046CA
:101E9000FFF70EF83048FFF72BF88020FEF728FFF9
:101EA0002046FFF705F82D48FFF722F80020FEF73F
:101EB0004FFF2046FEF7FCFF2948FFF719F80020E6
:101EC000FEF746FF2046FEF7F3FF2648FFF710F81F
:101ED0000020FEF73DFF2046BDE83840FEF7E8BF92
:101EE000AC1C002020B8000820A600084CA6000862
:101EF00078A60008A4A60008D0A60008FCA6000842
:101F000028A7000854A7000880A70008ACA700086D
:101F1000D8A7000804A8000830A800085CA800089A
:101F200088A80008B4A80008E0A800080CA90008C8
:101F300038A9000864A9000890A90008BCA90008F5
:101F4000E8A9000814AA000840AA00086CAA000822
:101F500098AA0008C4AA0008F0AA00081CAB000850
:101F600048AB000874AB000800000000000000004F
:101F700038B5194B19481A4C01251D60FEF798FF1A
:101F80001848FEF7B5FF2846FEF7B2FE2046FEF7DA
:101F90008FFF1548FEF7ACFF1448FEF789FF144881
:101FA000FEF7A6FF0620FEF7A3FE2046FEF780FF01
:101FB0001048FEF79DFF2846FEF79AFE2046FEF7E2
:101FC00077FF0D48FEF794FF2846FEF791FE204666
:101FD000BDE83840FEF76CBFAC1C0020A0AB000889
:101FE00020B80008A4A40008D0A40008D4AB0008BE
:101FF00004A5000830A500085CA50008000000004A
:102000001C4B1D4810B501221A60FEF771FF1B48DA
:102010001B4CFEF74DFF1B48FEF76AFF1A48FEF700
:1020200047FF1A48FEF764FF1948FEF741FF1948B9
:10203000FEF75EFF1848FEF73BFF1848FEF758FF13
:102040000420FEF755FE2046FEF732FF1448FEF747
:102050004FFF0820FEF74CFE2046FEF729FF1148EF
:10206000FEF746FF0820FEF743FE2046BDE810407D
:10207000FEF71EBFAC1C0020DCAB000808AC00085B
:1020800020B8000814AC000840AC00084CAC0008B4
:1020900078AC0008B8AC0008E4AC0008FCAC000860
:1020A00028AD000854AD000800000000000000004A
:1020B000FFF7A6BF000000000000000000000000C5
:1020C00070B50D46B8B1044628601249204607F0A5
:1020D000DFFF215C222904EB000612D00D493046B7
:1020E00007F0BAFF98B1421C00232A6003703378CE
:1020F00023B1304670BD0C68002CE6D10026304676
:1021000070BD0136304607F0CDFE0028EBD12860C7
:10211000EDE700BF80AD00080000000000000000F7
:102120000EB42DE9F04F86B00FAB53F8044B029379
:10213000254615F8011B002900F03B820746994609
:102140004FF000080CE03B683846DB6808F10108F6
:102150002C469847254615F8011B002900F0BE8043
:102160002529F0D163782D2B04BFA51C01202B78E5
:1021700018BF00202B2B03BF6B784FF0010E754466
:102180004FF0000E302B05BF1E466B782026013520
:102190002A2B40F0AC8059F8041B6B78AC1C2E2B1A
:1021A00000F03081002203F0DF054C2D00F0B280FA
:1021B000A3F1440CBCF1340F00F29881DFE81CF06D
:1021C0005E0196019601960196015E0196019601C7
:1021D0009601960196019A013500960196019601A5
:1021E000960194009601960135009601960196019C
:1021F00096019601960196019601960196014D0170
:102200005E0196019601960196015E019601960186
:102210009601960196019A013500960196012D01CD
:10222000960194009601960135004FF0100E59F872
:10223000045B0DF1170300E06346AA46B5FBFEF50B
:102240000EFB15AB0BF13002392AC8BF0BF1370278
:10225000D2B2F24503F1FF3C03F8012CECD20DF1B0
:102260000C0A0DF11705A5EB0C05D6460DF1170C60
:1022700001E013F8012B0EF8012B6345F9D1491B3E
:10228000013D21EAE17B20B90029CBF1000B00F3ED
:102290004581002D0FDB6B1C534401941C463A68AA
:1022A0001AF8011BD26838469047A245F7D108F1C9
:1022B0000108019CA844BBF1000F3FF44BAF5D4601
:1022C0003B683146DB6838469847013DF8D12546E2
:1022D000D84415F8011B00297FF442AF404606B0F0
:1022E000BDE8F04F03B070474FF00A0E9FE76C1C3B
:1022F000002BF3D00021A3F13002D2B2092A01EB66
:1023000081053FF64CAF14F8013B02EB4501002B71
:10231000F1D1E3E714F8013B002BDFD0A3F1440532
:10232000342D00F2E3800FF2080C5CF825F000BFBA
:102330007D240008ED240008ED240008ED240008A9
:10234000ED2400087D240008ED240008ED24000899
:10235000ED240008ED240008ED240008F524000811
:102360002B220008ED240008ED240008ED240008CD
:10237000ED240008E9220008ED240008ED240008FF
:102380002B220008ED240008ED240008ED240008AD
:10239000ED240008ED240008ED240008ED240008D9
:1023A000ED240008ED240008ED2400085B2400085B
:1023B0007D240008ED240008ED240008ED24000829
:1023C000ED2400087D240008ED240008ED24000819
:1023D000ED240008ED240008ED240008F524000891
:1023E0002B220008ED240008ED2400081B2400081F
:1023F000ED240008E9220008ED240008ED2400087F
:102400002B2200082378002B3FF468AF2A2B74D1CD
:10241000637859F8042B0234C5E659F804ABBAF1D5
:10242000000F00F0BC809AF80030002A40F0AA802B
:10243000002B00F0AB8047F6FE72554601E0D34218
:1024400005D415F8016FAAEB0503002EF7D1A5EB13
:102450000A05491B2026013D13E759F8043B8DF876
:102460000C300139202621EAE17B18B90029CBF193
:10247000000B72DC00250DF10C0A0CE759F804CBB7
:10248000BCF1000F5FDBBEF1000F00F08E802B234C
:102490008DF80C300DF10D050DF10C0A05F10B0353
:1024A00001931A46474BA3FB0CE3DB0803EB830BBA
:1024B0009E46ACEB4B033033E346DBB2BBF1090F76
:1024C00002F8013DF446EDDC9E46019BA3EB020CB5
:1024D000AC44734601E012F8013F05F8013B654545
:1024E000F9D1A5EB0A05491B013DCAE68DF80C3070
:1024F0000139B8E74FF0080E99E601340022A3F144
:102500003005EDB2092D02EB820C3FF64CAE14F80B
:10251000013B05EB4C02002BF1D1DFE6CDF804B016
:102520009AF800102D2921D03B683146DB683846E7
:1025300098471BF1010BF7D1019B002DA8EB030875
:10254000BFF6A9AE06E62D23CCF1000C8DF80C30B9
:102550000DF10D050DF10C0AA0E79DF80C10CDF85A
:1025600004B02D290DF10C0A0546DDD1302EDBD14A
:102570003A683846D26890470AF1010A08F1010822
:10258000013DD1E713B1013A7FF557AF21EAE17B75
:1025900018B90029CBF1000B0DDC20268BE6DFF803
:1025A00028A0002A3FF447AFEDE70DF10C0A55468D
:1025B00074E7884692E6CDF804B020264FF0FF3548
:1025C000AEE700BFCDCCCCCC84AD0008000000004D
:1025D00000290BDC202383F311884FF08042002375
:1025E000526A83F311880349FFF79ABD024A0349EF
:1025F000FFF796BDA0AD00088CAD000894AD0008B3
:10260000012903D0034A0449FFF78ABD1268034930
:10261000FFF786BDA8AD000894AD0008B8AD00086E
:1026200000292EDC10B5194A194982B00446FFF77B
:1026300077FD184A18492046FFF772FD174A1849D6
:102640002046FFF76DFD174A17492046FFF768FD42
:10265000164A17492046FFF763FD164A16492046D9
:10266000FFF75EFD154A16492046FFF759FD154B49
:102670000093154A154B16492046FFF751FD02B04D
:1026800010BD144A1449FFF74BBD00BFD4AB00087E
:10269000C8AD000878AC0008DCAD000808AC000844
:1026A000F0AD000840AC000804AE0008E4AC00083F
:1026B00018AE00082CAE000858AE00086CAE00083A
:1026C00094AE0008D0AE0008ACAE0008A8AE00087A
:1026D000B8AE0008C0AD000894AD000800000000CE
:1026E00070B50C68A14212D00D46064602E024687F
:1026F000A5420CD008223146A01807F03BFC002868
:10270000F5D114B1636801336360204670BD0024C5
:10271000204670BD00000000000000000000000026
:10272000F8B50C68A1420D460646174603D10DE0E8
:102730002468A5420AD008223146A01807F01AFCE6
:102740000028F5D114B104462046F8BD3846FEF7FE
:1027500067FC04460028F7D008223146104407F0F1
:1027600047FC2B680122C4E9003220462C60F8BDEA
:10277000202383F311880D4B5B6813F4006302D1AF
:1027800083F311887047EFF30983203B4FF0807289
:10279000DA6183F30988064A116892698968926848
:1027A00091428CBF034A044A9A61704700ED00E0F1
:1027B000B0090020E3020008E60200080000000063
:1027C000EFF30983203383F30988002383F311880F
:1027D000704700BF00000000000000000000000083
:1027E00010B40B4A0B48536B4FF080441968646A6D
:1027F0005C60406860F31F2143F8101B02F638014B
:102800008B4228BF02F1380310BC5363704700BFEE
:10281000B0090020001000E00000000000000000EF
:10282000084B1A8ED20700D5704790F82020596BBC
:10283000406AD20042F001020A709B69C1E902308D
:10284000FFF7CEBFB009002000000000000000002C
:1028500070B5202383F31188144C2168A5698B6817
:10286000AA68934203D2002383F3118870BD0B68DA
:102870002360012600205C6081F82060A16185F85A
:10288000200000E01B6899688A42FBD95A682846F4
:10289000C5E9003215605D60FFF7C2FFA0692946F7
:1028A000FDF70EFD002383F3118870BDB0090020F1
:1028B00038B5094D0446FFF7CBFFFFF7C9FFFFF717
:1028C000C7FFFFF7C5FF2368AA690433236092F8A6
:1028D00021305B07EFD538BDB009002000000000B3
:1028E00070B5104E3268B5691368336001215E60BF
:1028F00082F820100021AC6885F82010B26100E059
:102900001B689A689442FBD35A682846C5E900328E
:1029100015605D60FFF784FFB0692946BDE870402F
:10292000FDF7CEBCB0090020000000000000000050
:10293000044B1A689B6992689B689A4200D870475A
:10294000FFF7CEBFB009002000000000000000002B
:1029500070B5202383F31188856881600135002DCF
:102960000CDC04466FF001066068436863601C601D
:10297000FEF746FD0135012D4662F5D1FFF7D8FF80
:10298000002383F3118870BD0000000000000000E8
:1029900001480021FFF7DCBF78150020000000008F
:1029A00038B5202383F311880A4C2368012204F1EF
:1029B00018000025C4E9023322752561FEF7C0FD29
:1029C00004F12000FEF7BCFDFFF7B2FF85F311888C
:1029D00038BD00BF4C0800200000000000000000CF
:1029E000FFF7DEBF00000000000000000000000054
:1029F000FFF7F6BF0000000000000000000000002C
:102A0000FFF7EEBF00000000000000000000000023
:102A10004B6970B561330C460646D8B21546FEF7D1
:102A2000A7F9636A23F0080363620DB9002070BD43
:102A3000202383F3118821463046FEF711FEFFF76D
:102A400077FF002383F31188002070BD0000000091
:102A500008B5202282F311888368002B05DDFFF77B
:102A600067FF002383F3118808BDFEF7E9FDFFF738
:102A70005FFF002383F3118808BD00BF0000000042
:102A800010B52023044683F31188094B186820B140
:102A9000002242621A60FEF7B3FCFFF749FF0023F1
:102AA00083F311882078BDE81040FEF761B900BFBC
:102AB000D81C002000000000000000000000000002
:102AC0002DE9F04105460C4616464FF02008002738
:102AD00088F31188EB6823602846EC60FEF7B0FDB0
:102AE000FFF726FF87F311882B69013E1C44EFD1C5
:102AF000BDE8F081000000000000000000000000C0
:102B000038B5164B01469D69202383F31188006870
:102B1000CB68AB6388421BD0EC6B4BB11A68934215
:102B200003D09268944238BF1446DB68002BF5D17D
:102B3000826B0368AC600B605960C1E9020281637B
:102B4000FEF75EFCFFF7F4FE002383F3118838BD27
:102B500000238360002383F3118838BDB00900206F
:102B60002DE9F8434F4D504CAA6902239668236023
:102B7000FDF7C6FD4D49FEF753F808B1BDE8F883EF
:102B800003232360FDF7BCFD80F001004849C0B27B
:102B9000FEF746F80028F1D1464F0423384623605B
:102BA000FFF7AEFFB8684449B0FA80F04009FEF77D
:102BB00037F80028E2D138684049C01BB0FA80F0ED
:102BC0004009FEF72DF80028D8D1AB693C49986838
:102BD000801BB0FA80F0052340092360FEF720F83F
:102BE0000028CBD106232360FDF78AFD2F49FEF78D
:102BF00017F80028C2D1FDF783FD80F001002C49B1
:102C0000C0B2FEF70DF80028B8D1202383F3118855
:102C1000D5F81890D9F83830DBB180461A68D968F1
:102C2000C9F838109342104637D0D2F838C011682E
:102C300019604B60C3E9022C9363FEF7E1FBD9F8FE
:102C40003830002BEAD1D9F83C30C9F80830FFF70A
:102C50006FFE002383F31188B8681749B0FA80F03B
:102C60004009FDF7DDFF002888D138681349C01BF3
:102C7000B0FA80F04009FDF7D3FF00287FF47EAF63
:102C8000AB690F499868801B0723B0FA80F0236076
:102C90004009BDE8F843FDF7C3BFC3F808800B4601
:102CA000CFE700BFB0090020AC1C0020DCAE00085C
:102CB000ECAE00082C080020F8AE000804AF0008B5
:102CC00014AF000800000000000000000000000039
:102CD00010B5202282F31188084A9269D46B91685A
:102CE000A14201D0814200D29060D063FFF720FE64
:102CF000002383F31188204610BD00BFB0090020D7
:102D00002DE9F0412F4DDFF8D080AB699C68A61CFF
:102D1000671C9E6038460223C8F80030FFF7D8FFD2
:102D2000001BB0FA80F028494009FDF779FF08B18F
:102D3000BDE8F081AB6925499868801BB0FA80F046
:102D40004009FDF76DFF0028F2D1AB692049D86B2F
:102D5000C01BB0FA80F04009FDF762FF0028E7D100
:102D6000E61C03233046C8F80030FFF7B1FF381ADD
:102D7000B0FA80F014494009FDF752FF0028D7D17E
:102D8000AB6912499868801BB0FA80F04009FDF7E2
:102D900047FF0028CCD1AB690E49D86B801BB0FA35
:102DA00080F04009FDF73CFF0028C1D10423C8F89A
:102DB0000030202383F31188AB699C60DC6380F3CF
:102DC0001188B5E7B00900202CAF000850AF00080B
:102DD0006CAF000894AF0008AC1C0020000000009D
:102DE0002DE9F0411D4FDFF88080BB699E68751C9E
:102DF00001232846C8F80030FFF76AFF0446801B0D
:102E0000B0FA80F016494009FDF70AFF08B1BDE8A5
:102E1000F081BB6913499868401BB0FA80F0400903
:102E2000FDF7FEFE0028F2D102232046C8F800304C
:102E3000FFF74EFF281AB0FA80F009494009FDF764
:102E4000EFFE0028E3D1BB6906499868801BB0FA01
:102E500080F0BDE8F0414009FDF7E2BEB009002076
:102E60002CAF000850AF0008AC1C00200000000090
:102E700010B5EFF30584C4F308041CB1002383F3F9
:102E8000118810BDFFF754FD84F3118810BD00BFF9
:102E900008B5202383F31188002282F3118883F37D
:102EA0001188EFF311831BB9FEF7A2FCFFF7E0FFD7
:102EB000002383F3118808BD00000000000000001B
:102EC000184AF8B597698668BD684162AE42044603
:102ED0000DD80021134680F820101B689A6896428E
:102EE000FBD95A68C4E9003214605C60F8BD002365
:102EF00087F8203013461B6899688D42FBD35968C8
:102F0000796001253B6038460F605F6084F820508F
:102F10009461FFF785FC39462046BDE8F840FDF78F
:102F2000CFB900BFB0090020000000000000000081
:102F3000F8B50446202080F311881A4FC4F8E03019
:102F400004F1DC03C4F8DC20C4F808117A69C4F881
:102F50003C11C4F80C31144D144BC4F8FC50012141
:102F600004F5807584F82211C4F81831002604F5A0
:102F7000967304F594710220A4F82001C4E94D660B
:102F8000C4E94472C4F81C4128461561C4E94A13D7
:102F9000C4F8303131467D61FFF792FF86F3118826
:102FA0002846F8BDB0090020D1020008B4AF0008DF
:102FB00008B5202383F31188064B1868984205D082
:102FC00002681A6053600021FFF77AFF002383F341
:102FD000118808BD0008002000000000000000006B
:102FE0002DE9F041144F86B0804638460E4615460E
:102FF000FEF716F80446D0B17B68104ACDF8008081
:10300000034402930190039605950492202383F3D1
:1030100011886846FEF77CF9022380F821300764A6
:1030200000210446FFF74CFF002383F3118820465C
:1030300006B0BDE8F08100BF48140020A10E0008D2
:1030400008B5202282F3118882680132002A82604A
:1030500003DD002383F3118808BD0346006802687E
:103060001A6000215360FFF72BFF002383F31188C0
:1030700008BD00BF000000000000000000000000CC
:1030800010B5202383F31188FEF742F9002104468E
:10309000FFF716FF002383F31188204610BD00BF01
:1030A00038B50A4CA569236885F820001A682260A3
:1030B00001215460284683F82010A361FFF7B0FB7C
:1030C000A0692946BDE83840FDF7FAB8B0090020EC
:1030D00038B5202383F31188154CA3685A1C002AA5
:1030E000A26019DD002BA36006DBFFF721FC0020A6
:1030F000002383F3118838BD0E4A63689569052063
:10310000C5E900431D606C626560FFF7C9FF686A2E
:10311000002383F3118838BD2068036823605C6056
:10312000FEF76EF9A36800224262013BDAE700BFB6
:1031300078150020B0090020000000000000000009
:1031400038B51E4B1E4D9B691E4A99681E481F4C80
:10315000012301312B600023FFF7EAFE1C4A022302
:1031600010602B60FFF7B4FF20681A49001BB0FA0B
:1031700080F04009FDF754FD00B138BDA068164944
:10318000B0FA80F04009FDF74BFD0028F5D103238C
:103190002B60FFF79DFF20680E49001BB0FA80F0FE
:1031A0004009FDF73DFD0028E7D1A0680A49B0FAC3
:1031B00080F0BDE838404009FDF732BDB00900207D
:1031C000AC1C0020817100089815002078150020A3
:1031D000C41C002004AF0008BCAF000800000000C1
:1031E0000C4A10B52023946983F31188606B40B1B9
:1031F000434220EA030262631840002383F31188EC
:1032000010BD4FF0FF330A206362FFF749FF606B88
:10321000EEE700BFB0090020000000000000000041
:103220000C4A10B52023946983F31188606B20B198
:103230000023636383F3118810BD4FF0FF33636293
:103240000A20FFF72DFF0023606B636383F311886F
:1032500010BD00BFB0090020000000000000000009
:103260000C4A10B52023946983F31188636B03F033
:103270000502052A05D0052363620B20FFF710FF26
:10328000636B23F005036363002383F31188052038
:1032900010BD00BFB00900200000000000000000C9
:1032A000074A10B52023946983F311880320FFF7A0
:1032B000F7FE636A002BF9D0002383F3118810BD59
:1032C000B009002000000000000000000000000025
:1032D00030B54B1C87B012D00C4D0D4AAB6904467B
:1032E00001A8FEF73DFA2046FFF7DAFE049B13B172
:1032F00001A8FEF7F5F9AB69586A07B030BD034D78
:10330000FFF7CEFEAB69586A07B030BDB0090020A8
:103310009113000800000000000000000000000001
:10332000202383F31188104B99684A1E002A9A6063
:1033300004DB0020002383F31188704780B10B4A1F
:1033400010B592695C685362C2E90034014622609C
:1033500005205A60FFF7BCFF002383F3118810BDDE
:1033600099604FF0FF30E5E778150020B0090020A4
:1033700070B5584D584C0120A2692860202383F372
:103380001188536B33B983F311885449FDF748FC16
:1033900080B170BD584223EA0001516318400023F8
:1033A00083F31188B0FA80F04C494009FDF738FCEE
:1033B0000028EED1A369202282F311885A6B002ADB
:1033C00067D180F3118801204449FDF729FC0028CA
:1033D000DFD1A369202282F311885A6B01325CD0BD
:1033E00080F3118801203D49FDF71AFC0028D0D157
:1033F00002232B60A669202383F31188756B55B9CE
:103400004FF0FF3373624FF4FA710A20FFF760FF49
:10341000002852DB756B684225EA0003736328407D
:10342000002383F31188B0FA80F040092B49FDF79F
:10343000F7FB0028ADD1A669202383F31188756BB3
:103440007DB30023736383F31188B5FA85F04009D7
:103450002249FDF7E5FB054600289AD1A4692023FF
:1034600083F31188636B013309D04FF0FF3363623C
:103470004FF4FA710B20FFF72BFF002825DB002308
:10348000636383F3118828461449BDE87040FDF753
:10349000C7BB586380F3118896E7586380F311889F
:1034A000A1E74FF0FF3373624FF4FA710A20FFF780
:1034B0000FFF002805DB756BC3E785F3118801203A
:1034C000B4E785F311880120C2E785F3118801254F
:1034D000D9E700BFAC1C0020B0090020D0AF000825
:1034E00010B52023044683F311888268531E002BF5
:1034F000836007DBE068C8B10368E360002383F3FF
:10350000118810BD0846D9B10E4B9B695C62626898
:103510000520C3E9004213606360FFF7D9FE00286D
:10352000E8D00020002383F3118810BDA369002B8D
:10353000F7D0D4E904019847002383F3118810BD24
:10354000A260DBE7B00900200000000000000000DE
:1035500008B5084B084801224FF47A711A60FFF74A
:10356000BFFFB0FA80F0BDE8084004494009FDF70C
:1035700057BB00BFAC1C002010080020F8A00008BA
:103580002DE9F0473248334F3349DFF8D480012327
:10359000042206463B60FFF793FA02233B60354660
:1035A000042400212846FFF79BFF003818BF0120A4
:1035B0004146FDF735FB002848D1013CF1D10323FA
:1035C000214623483B60FFF78BFFB0FA80F0234988
:1035D0004009FDF725FB002838D11F4DDFF870A00A
:1035E000042305F110093B604FF020082B4688F3B7
:1035F0001188F26845F8042B5046F360FEF720F876
:10360000FFF796F984F311884D45EFD10523104E4D
:10361000134D3B60042400213046FFF761FF003862
:1036200018BF01202946FDF7FBFA78B9013CF2D119
:103630002146062306483B60FFF752FFB0FA80F0B0
:10364000BDE8F04705494009FDF7EABABDE8F08753
:1036500010080020AC1C002068150020F8A000080D
:10366000ECA00008000000000000000000000000C6
:1036700061B1084A10B4926944680346C2E9003453
:103680000420226010BC5A60FFF722BE4FF0FF30CA
:10369000704700BFB00900200000000000000000DB
:1036A0002DE9F041202306460D4683F31188174C7F
:1036B00004F118080AE0D4E900272369A7EB020CFB
:1036C000B3EBAC0F0ED1FFF7D3FF30B9237D294602
:1036D0004046002BEFD06FF00100002383F31188E8
:1036E000BDE8F081E1680A4804398A4288BF391F81
:1036F000E16001330E602361FDF79AFEFFF718F9D0
:103700000020002383F31188BDE8F0814C080020DD
:103710006C08002000000000000000000000000015
:10372000F8B504460E461546202383F31188C718C2
:1037300004E023696BB9FFF79BFF30B9237D29466D
:103740003846002BF5D06FF00100002383F3118879
:10375000F8BDE2686168106804328A42E26003F1F1
:10376000FF3328BF2268306028BFE260236104F184
:103770001800FDF75DFEFFF7DBF80020002383F360
:103780001188F8BD000000000000000000000000EB
:103790002DE9F041114E82B006F11C07B0464FF002
:1037A000FF3201A93846FFF7BBFF044610B102B053
:1037B000BDE8F081019D2B68002BF8D06868984720
:1037C000202383F31188F3682B604046F560FDF7F2
:1037D00037FFFFF7ADF884F31188E0E7F41300201A
:1037E0002DE9F041202304460E46154683F3118847
:1037F00000F118080AE0D4E900722369A2EB070C73
:10380000B3EBAC0F0ED1FFF733FF30B9237D294660
:103810004046002BEFD06FF00100002383F31188A6
:10382000BDE8F081A068011D8A4203F10103A16097
:10383000066098BFA760236104F12000FDF7F8FD42
:10384000FFF776F80020002383F31188BDE8F081AC
:103850002DE9F041434FDFF81481434E012382B03C
:103860003B604546422421464FF0FF322846FFF791
:10387000B7FFB0FA80F0314640090134FDF7D0F9C6
:1038800090B9462CEFD102230122582137483B60E2
:10389000FFF7A6FFA0F1FF30B0FA80F032494009EF
:1038A000FDF7BEF9044610B102B0BDE8F081202555
:1038B00085F311885820FDF7CBFD84F31188A0F122
:1038C000FF30B0FA80F028494009FDF7A9F9002837
:1038D000EAD101215820FFF7E3FEA0F1FF30B0FA52
:1038E00080F021494009FDF79BF904460028DBD10F
:1038F00085F311885820FDF7D3FD84F31188A0F1DA
:10390000FF30B0FA80F018494009FDF789F9044604
:103910000028C9D103233B60FFF742F8042301A923
:103920000122124888F814403B60FFF7F9FEA0F12D
:10393000FF30B0FA80F00C494009FDF771F90446F8
:103940000028B1D185F3118801A8FDF7D1FD84F3DA
:103950001188A0F1FF30B0FA80F003494009FDF76B
:103960005FF9A1E7AC1C0020E0AF00084C08002084
:103970002DE9F047AF4F4FF0010882B0C7F8008043
:10398000202686F31188AC4CAC492069D4E9002389
:103990009B1AC0EBA300A0F10400B0FA80F040092C
:1039A000FDF73EF928B1002383F3118802B0BDE88A
:1039B000F087054680F3118802233B6086F3118867
:1039C0002368206104F11800C4E9023384F81480EC
:1039D000FDF7B6FD04F12000FDF7B2FD85F3118877
:1039E00086F31188D4E90023206995499B1AC0EB1E
:1039F000A300A0F10400B0FA80F04009FDF710F92F
:103A0000804688B980F3118886F3118820698D4932
:103A1000B0FA80F04009FDF703F9054648B188F394
:103A2000118802B0BDE8F08785F3118802B0BDE8C7
:103A3000F08780F3118886F311882068A368824993
:103A4000C01AB0FA80F04009FDF7EAF88046002875
:103A5000EAD180F3118886F311882068E3687B49F6
:103A6000C01AB0FA80F04009FDF7DAF805460028E0
:103A7000D5D180F311880323DFF8D4A120753B60F2
:103A80004FF0420986F311884846FDF7E1FC85F3C3
:103A90001188B0FA80F040095146FDF7C1F809F1EC
:103AA00001098046002881D1B9F1450FEAD186F39A
:103AB00011884120FDF7F4FC88F31188B0FA80F0FA
:103AC00063494009FDF7ACF8054600287FF46EAF66
:103AD0004FF00409C7F8009086F31188D4E9001369
:103AE00022695B1AB2EBA30F5A490CBF01200020D8
:103AF000FDF796F88046002896D180F3118886F36A
:103B0000118820695449A0F10400B0FA80F04009FE
:103B1000FDF786F80546002881D180F3118886F3E9
:103B20001188D4E90230C01AB0FA80F04B4940093C
:103B3000FDF776F800287FF477AF80F3118805232E
:103B4000434E3B6005464FF0200888F3118801A8DA
:103B5000FDF7CEFC85F31188B0FA80F040093146BC
:103B6000FDF75EF800287FF421AF9DF80400FDF713
:103B7000FFF8B9F10109E8D139493A48FDF7D0F920
:103B800000287FF413AF062346212B483B604FF0FB
:103B9000FF32FFF725FEB0FA80F02D494009FDF70E
:103BA0003FF800287FF402AF01A923484FF0FF320D
:103BB000FFF7B6FDB0FA80F025494009FDF730F86F
:103BC00000287FF4F3AE07233B6088F31188D4E923
:103BD00000122369521AC3EBA203191F484248413D
:103BE0001749FDF71DF808BB89F3118888F3118880
:103BF00020691449B0FA80F04009FDF711F8A8B91E
:103C000089F311882068A3680F49C21A50425041B5
:103C1000FDF706F800287FF4C9AE2068E3680B4979
:103C2000C31A58425841FCF7FBFFBFE689F31188DD
:103C3000BCE600BFAC1C00204C080020F8AF000818
:103C400004B0000810B000081CB0000840B0000824
:103C5000E0AF000864B0000870B000087CB0000855
:103C600094B00008A8B000080000000000000000A8
:103C70002DE9F041BB4F012382B03B60202686F343
:103C80001188B94CB9492069D4E900239B1AC0EBCB
:103C9000A300A0F10400B0FA80F04009FCF7C0FFD7
:103CA00028B1002383F3118802B0BDE8F0810546F6
:103CB00080F3118802233B60FEF772FE86F31188C1
:103CC000D4E900232069AA499B1AC0EBA300A0F104
:103CD0000400B0FA80F04009FCF7A2FF804688B9E2
:103CE00080F3118886F311882069A249B0FA80F028
:103CF0004009FCF795FF054648B188F3118802B0EA
:103D0000BDE8F08185F3118802B0BDE8F08180F351
:103D1000118886F311882068A3689749C01AB0FA01
:103D200080F04009FCF77CFF80460028EAD180F350
:103D3000118886F311882068E3689049C01AB0FAA8
:103D400080F04009FCF76CFF0028D6D180F3118881
:103D5000032301464FF0FF3220463B60FFF740FD52
:103D6000811C14BF002001208549FCF759FF002861
:103D70009AD14FF0FF31FFF793FC821C14BF002053
:103D800001207F49FCF74CFF00288DD101A94FF09D
:103D9000FF322046FFF7C4FC831C14BF0020012023
:103DA0007749FCF73DFF00287FF47EAF0423DFF85E
:103DB000D48120753B604225264629464FF0FF32CC
:103DC0003046FFF70DFDB0FA80F04146400901355D
:103DD000FCF726FF00287FF467AF452DEDD14FF0AB
:103DE000FF314120FFF75CFCB0FA80F065494009E3
:103DF000FCF716FF054600287FF456AF05233B600D
:103E00004FF0200888F31188D4E9001322695B1A67
:103E1000B2EBA30F5C490CBF01200020FCF700FFB0
:103E2000064600287FF46EAF80F3118888F311886E
:103E300020695649A0F1040CDCF1000040EB0C00B5
:103E4000FCF7EEFE054610B186F311882CE780F3EF
:103E5000118888F31188D4E90230C61A7042704183
:103E60004B49FCF7DDFE00287FF44CAF80F311884E
:103E70000623DFF8F480434E3B60042501A94FF090
:103E8000FF324046FFF74CFCB0FA80F03146400963
:103E9000FCF7C6FE00287FF407AF9DF80400FCF78E
:103EA00067FF013DEAD13B493B48FDF739F800285F
:103EB0007FF4FAAE072346212B483B604FF0FF32D8
:103EC000FFF78EFCB0FA80F02E494009FCF7A8FEFF
:103ED00000287FF4E9AE01A923484FF0FF32FFF735
:103EE0001FFCB0FA80F027494009FCF799FE002832
:103EF0007FF4DAAE08233B60202686F31188D4E9EC
:103F000000122369521AC3EBA203191F4842484109
:103F10001749FCF785FE00287FF4F4AE85F311887D
:103F200086F3118820691349B0FA80F04009FCF744
:103F300077FE00287FF4E6AE85F311882068A36839
:103F40000D49C21A50425041FCF76AFE00287FF426
:103F5000ABAE2068E3680949C31A58425841FCF7E0
:103F60005FFEA1E6AC1C00204C080020F8AF000862
:103F700004B0000810B000081CB0000840B00008F1
:103F8000B0B00008E0AF000864B0000870B00008EE
:103F90007CB0000894B00008A8B000080000000041
:103FA00008B50146202383F311880820FFF790F914
:103FB000002383F3118808BD00000000000000000A
:103FC0000F4B104A9B69104E80B540279A61B84646
:103FD0000E4CA6F8188010254FF4FA70FFF7E0FF9A
:103FE000258340F6B830FFF7DBFF77834FF4FA7094
:103FF000FFF7D6FF658340F6B830FFF7D1FFE7E75C
:10400000B0090020C4B0000800180240000C0240B3
:104010000F4B104A9B69104E80B520279A61B84615
:104020000E4CA6F8188008254FF4FA70FFF7B8FF79
:10403000258340F6B830FFF7B3FF77834FF4FA706B
:10404000FFF7AEFF658340F6B830FFF7A9FFE7E75B
:10405000B0090020D0B00008000C02400028024047
:1040600008B5C0B2FCF784FEBDE808406420FFF745
:1040700097BF00BF0000000000000000000000002B
:1040800038B5202585F311880B480021FDF798FAF3
:104090000024FEF74DFC84F311884FF4FA70FFF70B
:1040A0007FFF85F3118805482146FDF789FAFEF761
:1040B0003FFC84F3118838BD080800200C0800205C
:1040C00010B504464FF4FA70FFF76AFF202383F31C
:1040D000118801212046FDF75BFAFEF729FC002339
:1040E00083F3118810BD00BF000000000000000035
:1040F00008B54FF4FA70FFF753FF202383F31188BC
:104100000448FDF79DFAFEF713FC002383F31188A2
:1041100008BD00BF7815002000000000000000006E
:1041200070B52C4E01234FF0804533606C6A6420DB
:10413000FFF736FF04F1670104F16400FCF710FBA0
:1041400000B170BD022333606C6A4FF47A70FFF7E0
:1041500027FF04F2EB3104F57A70FCF701FB00282D
:10416000EFD1032333606C6A4FF47A70FFF718FFC6
:1041700004F2EB3104F57A70FCF7F2FA0028E0D192
:10418000042333606C6A42F21070FFF709FF04F5F4
:104190001C51084610301331FCF7E2FA0028D0D148
:1041A000052333606E6A202306F1640483F31188CB
:1041B000696A611A09D1002383F3118806F1670146
:1041C0002046BDE87040FCF7CBBA0820FFF780F826
:1041D000F1E700BFAC1C0020000000000000000060
:1041E00010B5314C012386B02360EFF311831BB966
:1041F000FDF7FEFAFEF73CFE02232360202383F343
:104200001188EFF311831BB9FDF7F2FAFEF730FEC8
:10421000002383F3118803232360EFF3118313B981
:10422000202383F31188EFF3118313B9202383F341
:104230001188002383F3118804222260202282F354
:104240001188EFF311820AB183F31188EFF3118320
:1042500013B1002383F31188052200230493226005
:10426000202383F31188049B01AC13B12046FDF792
:1042700037FA20460D4A00230121FDF771FA002488
:1042800084F311880A20FFF78BFE202383F3118823
:10429000049884F31188B0FA80F005494009FCF7CE
:1042A000BFFC06B010BD00BFAC1C0020912E000862
:1042B000DCB000080000000000000000000000006A
:1042C00008B50120FFF76CFE202383F311884FF01F
:1042D00080420023506A83F3118808BD000000006B
:1042E0002DE9F84FDFF890B01E4F1F4E1F4D0123F0
:1042F000CBF80030FFF7E4FF00248046A2464FF0E1
:10430000200989F3118800233A4630460121FDF740
:1043100027FA3A46002342F210712846FDF720FAA8
:104320003046FDF7DDF92846FDF7DAF98AF3118802
:104330004FF0804342F20F725B6AA3EB0803934293
:1043400004F10104DDD902230948CBF80030FCF761
:10435000CFFD6000FCF7FCFCBDE8F84F0548FCF71A
:10436000A7BD00BF310A0008DC1C0020F01C0020A3
:10437000F0B0000800B10008AC1C002000000000F4
:104380002DE9F04F8846DFF834B3034683B0AB48DD
:10439000CBF80030FCF78CFDD8F80030002B00F093
:1043A000F881A74C2A21DBF800000368DB689847F6
:1043B00014F8011F0029F6D1D8F80000FCF778FDA9
:1043C000A048A14CFCF774FD2A21DBF8000003682B
:1043D000DB68984714F8011F0029F6D19B489C4CD4
:1043E000FCF766FD2A21DBF800000368DB689847CC
:1043F00014F8011F0029F6D19648974CFCF758FD98
:104400002A21DBF800000368DB68984714F8011FD5
:104410000029F6D19148924CFCF74AFD8948FCF7F7
:1044200047FD2A21DBF800000368DB68984714F891
:10443000011F0029F6D18B4B8B488C4CC01AFCF71E
:1044400087FC8B48FCF734FD2A21DBF80000036869
:10445000DB68984714F8011F0029F6D1854B864880
:10446000864CC01AFCF774FC8148FCF721FD2A2118
:10447000DBF800000368DB68984714F8011F002987
:10448000F6D17F4B7F48804CC01AFCF761FC78481E
:10449000FCF70EFD2A21DBF800000368DB68984773
:1044A00014F8011F0029F6D1784B79480191C01A00
:1044B000FCF74EFC6E48FCF7FBFC6048FCF7F8FC90
:1044C000D8F80430734A1B6801991170002B00F072
:1044D000F7808A4689464C24DBF8000003683D21BA
:1044E000DB689847013CF7D1DBF800006A490368B4
:1044F0006A4C5B68022298473D21DBF800000368A4
:10450000DB68984714F8011F0029F6D10AF1010A67
:104510005046634CFCF71CFC2021DBF800000368CC
:10452000DB68984714F8011F0029F6D1D8F8043049
:1045300053F809301C68217841B1DBF800000368AA
:10454000DB68984714F8011F0029F6D15548FCF79D
:10455000AFFCD8F8042052F809305B681B68002BC8
:1045600063D0514D0026514FFCF72AFDB4002D2198
:10457000DBF800000368DB68984717F8011F002983
:10458000F6D15046FCF7E4FBDBF80000444F03682B
:104590002E21DB68013698473046FCF7D9FB2021F5
:1045A000DBF800000368DB68984717F8011F002953
:1045B000F6D1D8F8043053F809305B681B591F68EE
:1045C000397841B1DBF800000368DB68984717F8D9
:1045D000011F0029F6D13348FCF76AFC4FF4FA605A
:1045E000FFF7DEFCD8F80430314A53F8093031497E
:1045F0005B682A601F597B6800220A7003B19847E4
:10460000FB689847BB6803B198472A4B1B78002B7F
:1046100072D12948FCF74CFCD8F8042052F8093034
:104620005B681C446368002B9DD109F1040952F8B2
:104630000930002B7FF44FAF42E000BF20B80008E4
:104640000CB1000808B2000814B100080CB2000850
:1046500028B100082CAE00083CB100086CAE000880
:1046600050B10008E0010008C0A0000864B10008D3
:1046700098A50008C0A0000800CB000878B1000889
:1046800000080020DC0800208CB10008E0080020B1
:10469000F0240020081C0020CCB70008A0B10008BE
:1046A000B4B1000824B20008C01C0020B8B1000852
:1046B000B01C0020A81C00202CB20008001C002008
:1046C000FCF77EFC354C3648FCF7F2FB4621DBF864
:1046D00000000368DB68984714F8011F0029F6D131
:1046E000304B1B78002B4CD02F48FCF7E1FB2D4BB7
:1046F000187803B0BDE8F08F2C4F2D21DBF80000B7
:104700000368DB68984717F8011F0029F6D1284B8A
:10471000284F1868FCF71CFB2021DBF80000036819
:10472000DB68984717F8011F0029F6D12B68224A49
:1047300093420AD9204FDBF8000017F8011B0368E9
:10474000DB6898472B689F42F5D31C4F5D21DBF84F
:1047500000000368DB68984717F8011F0029F6D1AD
:10476000174B1F68397841B1DBF800000368DB683C
:10477000984717F8011F0029F6D11248FCF798FB5B
:104780004AE71148FCF794FB064B187803B0BDE8E4
:10479000F08F0E48FCF78CFB12E600BFE8B1000872
:1047A00020B80008081C002040B20008C8B100086A
:1047B000AC1C0020E0B10008B01C0020E4B10008EF
:1047C000041C002028B2000838B20008F8B1000824
:1047D0000149FFF7D5BD00BF78C9000800000000FF
:1047E0000149FFF7CDBD00BF04C50008000000006F
:1047F00010B50B4CA269134653F82C0F984206D003
:104800000168D1620D224B6080F8202010BD0E207F
:10481000FEF746FCA269D06A02F12C03F0E700BF64
:10482000B0090020000000000000000000000000AF
:1048300070B52026002586F31188FFF7D9FF85F390
:104840001188446A86F311882146FEF739FB85F307
:104850001188002CEFD170BD0000000000000000A6
:104860000E4B10B520229C6982F311886162026BA5
:10487000626000F12C012160146090F82020046334
:104880000E2A07D00C20FEF70BFC606A002383F38E
:10489000118810BDFCF7B4FDF4E700BFB00900209B
:1048A0002DE9F0410546FFF70BFD002406464FF0C9
:1048B000804842F20F7701212846FFF7D1FFD8F850
:1048C00024309B1BBB4204F10104F4D9284600218B
:1048D000FFF7C6FF2046BDE8F08100BF00000000E2
:1048E00010B541210446FFF7BBFF20464221FFF7E8
:1048F000B7FF20464321FFF7B3FF20464421BDE820
:104900001040FFF7ADBF00BF000000000000000036
:104910000EB410B585B007AB01AA53F8044B019350
:1049200002A9CDE90242FFF79BFF05B0BDE81040A8
:1049300003B070470000000000000000000000000D
:1049400070B52E4B044680689D6930B3AA688368B1
:10495000934207D290F820308260062B35D0072B87
:1049600020D09BB1234603E09968AA68914202D304
:104970001B689C42F8D15A680620C5E900321560D0
:104980005D606C62BDE87040FEF78ABBD0E9003222
:1049900013605A60FCF734FDE4E7AB6BC4E90253E3
:1049A000AC6370BDD0E90031466A0B605960334694
:1049B00002E099688A4202D81B689E42F9D15A687F
:1049C000C0E9003210605860CCE7D0E90031466A97
:1049D0000B605960334602E099688A4202D81B682E
:1049E0009E42F9D15A68C0E9003210605860B06840
:1049F000AA6883689342ADD3B4E700BFB009002032
:104A000010B540F2DC50FFF7CBFA202383F3118876
:104A1000064C2046FFF794FF2046FCF7E9FDFDF722
:104A200087FF002383F3118810BD00BF3C080020DE
:104A300008B5202383F31188FFF782FF002383F357
:104A4000118808BD00000000000000000000000008
:104A50002DE9F843384E002818BF064606F10C0829
:104A60004046CF1D0D46FFF7E3FF7268FF08311D7A
:104A70000AB919E01A46D2F804C002F10F0323F074
:104A800007030CF10104994602EBC404083BA4EBB4
:104A90000900A3424FEAE00E02D2B7EBE00F13D9B0
:104AA00013681146002BE5D14046FEF729F833681C
:104AB000BBB30822F80011469847814608B140E987
:104AC00002654846BDE8F883934218D867452CD064
:104AD000013702EBC70000F10803E31ADB1014688A
:104AE00042F8374002F10809436008601346404627
:104AF000C3E90065FEF704F84846BDE8F88302F113
:104B00000801591AC91077455160F0D27C1CF9434D
:104B100003EBC40017687144416043F834701060BF
:104B2000E5E799464846BDE8F8839146134659F8AB
:104B3000082B0A60DBE700BF5813002000000000CC
:104B4000F8B50C68A1420D460646174603D10DE0A4
:104B50002468A5420AD008223146A01805F00AFAB6
:104B60000028F5D114B104462046F8BD394600208E
:104B7000FFF76EFF04460028F6D0082231461044A5
:104B800005F036FA2B680122C4E9003220462C6079
:104B9000F8BD00BF000000000000000000000000A1
:104BA000F0B587B017461E460D46FFF751FF044685
:104BB000C0B10C9B049305440D9B05930295CDE970
:104BC00000700396202383F311886846FCF7A0FB4E
:104BD000012380F8213000210446FEF771F90023FB
:104BE00083F31188204607B0F0BD00BF000000002D
:104BF0002DE9F04F334D2C7D83B01CB1002003B064
:104C0000BDE8F08F824605F13000FFF711FFDFF8B5
:104C1000BC800194574605F120091DE0FBF766FBB7
:104C2000286808EB06015A46FBF760FB2B684846EC
:104C30005B44AB60FDF764FF3F1BA044202383F37C
:104C40001188E869002118B1019BEB61FEF738F982
:104C5000019B83F3118837B34846FFF7E9FED5E996
:104C600000462B69A868341BE41ABC4228BF3C46A6
:104C7000361A2344B4422B611CD332464146A4EB7E
:104C8000060BCBD82246FBF731FB2B68AB604846BE
:104C9000FDF736FF002CCFD1202383F3118884F356
:104CA0001188AAEB070A0848FDF72AFF504603B00F
:104CB000BDE8F08F22464146FBF718FBAB68234462
:104CC000AB60E4E78C080020BC08002034C5000875
:104CD0002DE9F04F324C257D83B01DB1002003B08B
:104CE000BDE8F08F8A46804604F14000FFF7A0FE41
:104CF0005746019504F120091DE0FBF7F7FA2168FA
:104D000008EB06005A46FBF7F1FA236848465B4475
:104D1000E360FDF7F5FE7F1BA844202383F3118891
:104D2000A069002118B1019BA361FEF7C9F8019B9E
:104D300083F311882FB34846FFF77AFED4E90313B3
:104D40006668BB421D46A6EB010628BF3D465B1BBD
:104D5000B54223611CD33246A5EB060B4046CCD8A6
:104D60002A46FBF7C3FA2368E3604846FDF7C8FE0E
:104D7000002DD0D1202383F3118885F31188AAEB6D
:104D8000070A0848FDF7BCFE504603B0BDE8F08FA7
:104D90002A464046FBF7AAFAE3682B44E360E4E7BF
:104DA0008C080020CC08002000000000000000005B
:104DB00030B5224D85B00123102168462B60FFF7E6
:104DC00087FFB0FA80F01E494009FBF729FF40B980
:104DD0001C4C2268E36893421DD01B49FBF720FF5F
:104DE00008B105B030BD022310202B60FFF700FF93
:104DF000A0F10800B0FA80F011494009FBF710FF5C
:104E00000028EED1D4E9022393420CD00E49FBF7DF
:104E100007FF05B030BDA2689342DED12069B0FA29
:104E200080F04009D9E722689342EFD12069A0F1D0
:104E30000800B0FA80F04009E8E700BFAC1C002091
:104E4000F8AF00088C08002048B2000800000000FD
:104E500038B505460748FFF7EBFD074A0748111F1D
:104E6000FDF75EFC044600B105610248FDF748FE0F
:104E7000204638BD30120020441200205CB20008E9
:104E800038B5074D2846FFF7D3FD05F11001054859
:104E9000FDF726FC04462846FDF732FE204638BDC5
:104EA000301200205CB2000800000000000000008A
:104EB00010B50A48FFF7BCFD09490A488022FFF7F0
:104EC0003FFE044620B180220021103004F09AFFFA
:104ED0000248FDF715FE204610BD00BF301200202D
:104EE0005412002064B2000800000000000000001E
:104EF00038B5074D2846FFF79BFD05F1240105480D
:104F0000FDF7EEFB04462846FDF7FAFD204638BDC6
:104F10003012002064B20008000000000000000011
:104F200010B50A48FFF784FD094A0A48111FFDF72A
:104F3000F7FB044628B100F11003C0E90433002256
:104F400082610248FDF7DCFD204610BD30120020D2
:104F50005C1200206CB2000800000000000000009D
:104F600038B5074D2846FFF763FD05F128010548D0
:104F7000FDF7B6FB04462846FDF7C2FD204638BDC6
:104F8000301200206CB20008000000000000000099
:104F900038B51148FFF74CFD104911487822FFF74A
:104FA000CFFD044698B100F1380304F1280104F163
:104FB0003002C4E90633C4E90A11C4E90C2200F145
:104FC0007805002023616561206284F8240002488E
:104FD000FDF796FD204638BD301200206C120020EF
:104FE00074B2000800000000000000000000000093
:104FF00038B5074D2846FFF71BFD05F13C01054874
:10500000FDF76EFB04462846FDF77AFD204638BDC5
:105010003012002074B20008000000000000000000
:1050200070B51848FFF704FD174918484FF4CA72C5
:10503000FFF786FD044600B3002600F19405102218
:1050400004231030C4E908232946C4E90400E661BA
:10505000A662A661FDF734FD04F1540304F1440196
:1050600004F14C02C4E90D33C4E91111C4E913225F
:105070002563E66384F84060E3620248FDF740FD83
:10508000204670BD30120020701200207CB2000853
:1050900038B5074D2846FFF7CBFC05F14001054820
:1050A000FDF71EFB04462846FDF72AFD204638BDC5
:1050B000301200207CB20008000000000000000058
:1050C00038B51548FFF7B4FC144915487022FFF7AE
:1050D00037FD0446D8B100F16002002300F17005ED
:1050E000C4E90622303004F14001226104F150028B
:1050F000C4E90A33C4E90C00C4E91011C4E914225C
:105100006561236284F82430A363A364A365024825
:10511000FDF7F6FC204638BD301200207412002046
:1051200084B2000800000000000000000000000041
:1051300038B5074D2846FFF77BFC05F144010548CB
:10514000FDF7CEFA04462846FDF7DAFC204638BDC6
:105150003012002084B200080000000000000000AF
:1051600070B51F4C1F4E012584B004F1200035603E
:10517000FFF75EFC236825750022C4E90233226133
:10518000202383F31188A06928B16FF001034362E3
:10519000A261FCF735F9E06930B16FF001034362B9
:1051A0000023E361FCF72CF9FDF7C2FB002585F332
:1051B00011880D48FDF7A4FC2268E368934206D0ED
:1051C00028460A49FBF72CFD90B104B070BDA268D7
:1051D0009342F5D12569B5FA85F04009F1E700BFA2
:1051E0008C080020AC1C0020AC08002048B200084D
:1051F000022310203360FFF7FBFCB0FA80F0C349B4
:105200004009FBF70DFD0028DFD12268E3689342D7
:1052100000F08D81BE49FBF703FD0028D5D10323A3
:10522000102168463360FFF753FDB0FA80F0B749AC
:105230004009FBF7F5FC0028C7D12268E3689342D8
:1052400000F08781B249FBF7EBFC0028BDD1226852
:10525000E368207504219342316000F07181AC490C
:10526000FBF7DEFC0028B0D1052310203360FFF7E8
:10527000BFFCA0F11000B0FA80F0A6494009FBF78E
:10528000CFFC0028A1D12268E368934200F06A8134
:105290009F49FBF7C5FC002897D1062310216846DB
:1052A0003360FFF715FDA0F11000B0FA80F09949C6
:1052B0004009FBF7B5FC002887D12268E3689342D8
:1052C00000F05B819249FBF7ABFC00287FF47DAFD7
:1052D000914B009A9A4200F0598101208F4980F049
:1052E0000100FBF79DFC00287FF46FAF072304202B
:1052F0003360FFF77DFCA0F10400B0FA80F085492F
:105300004009FBF78DFC00287FF45FAFD4E902234E
:10531000934203D02268934200F053817C49FBF70B
:105320007FFC00287FF451AF08230C203360FFF787
:105330005FFCA0F10C0EDEF1000040EB0E007549A1
:10534000FBF76EFC00287FF440AF2268E3689342CD
:1053500000F03C816E49FBF763FC00287FF435AF19
:105360000923042168463360FFF7B2FC051F684239
:1053700068416849FBF754FC00287FF426AF236896
:10538000E2689A4203D0A268934200F045816049E6
:10539000FBF746FC00287FF418AF00985E4B5F498E
:1053A000C21A50425041FBF73BFC00287FF40DAF7E
:1053B0000A230C2168463360FFF78AFCA0F10C0336
:1053C000584258415349FBF72BFC00287FF4FDAEAF
:1053D0002268E368934200F005814D49FBF720FC09
:1053E00000287FF4F2AE69464D480C2204F0DAFC46
:1053F000B0FA80F049494009FBF712FC00287FF41D
:10540000E4AE0B2305203360FFF7F2FBA0F1050E9D
:10541000DEF1000040EB0E003E49FBF701FC0028E6
:105420007FF4D3AED4E90223934203D0226893429F
:1054300000F0E1803649FBF7F3FB00287FF4C5AEAE
:105440000C23052168463360FFF742FC451F684284
:1054500068413049FBF7E4FB00287FF4B6AED4E99D
:105460000223934200F0E8802949FBF7D9FB00288A
:105470007FF4ABAE69462A48052204F093FCB0FAEB
:1054800080F026494009FBF7CBFB00287FF49DAE56
:105490000D2310203360FFF7ABFBA0F11001484251
:1054A00048411C49FBF7BCFB00287FF48EAED4E9D1
:1054B0000223934200F0B6801549FBF7B1FB0028A8
:1054C0007FF483AE0E23102168463360FFF700FCA3
:1054D000A0F11003584258410E49FBF7A1FB0028E8
:1054E0007FF473AED4E90223934200F08C80084924
:1054F000FBF796FB00287FF468AE69461022084847
:1055000004F050FCB0FA80F00CE000BF8CB2000850
:1055100048B20008F8AF00083031323398B20008C2
:1055200034C5000849494009FBF77AFB4DE6A268FB
:1055300093427FF46FAE2069B0FA80F0400969E6CB
:10554000A26893427FF48BAE2069B0FA80F04009E4
:1055500085E6A26893427FF475AE2069B0FA80F0C8
:1055600040096FE6A26893427FF492AE2069A0F1F1
:105570001000B0FA80F040098AE6A26893427FF4F6
:10558000A1AE2069B0FA80F040099BE6019A03F1D0
:1055900004339A427FF4A1AE03F13063029A03F51B
:1055A000302303F204439A427FF497AE03F1806301
:1055B000039A03F5812303F20B339A427FF48DAEF5
:1055C0008CE62069031F58425841A7E6A26893421F
:1055D0007FF4C0AE2069A0F1100CDCF1000040EBBC
:1055E0000C00B7E6A26893427FF4F7AE2069B0FAE8
:1055F00080F04009F1E62069A0F1050CDCF1000023
:1056000040EB0C0016E7226893423FF470AF20692C
:10561000B0FA80F040096AE72069A0F10C01484225
:105620004841B4E6226893423FF446AF2069A0F1B6
:105630001002504250413FE7226893423FF414AFBA
:105640002069B0FA80F040090EE700BF98B2000868
:105650002DE9F843DFF880801C4C0123C8F80030A6
:10566000FEF72EFE002506464FF0804942F20F77E6
:105670002046FFF7DDF92046FDF742FA2046FFF706
:10568000D7F92046FDF73CFA2046FFF7D1F920462E
:10569000FDF736FA2046FFF7CBF92046FDF730FA42
:1056A000D9F824309B1BBB4205F10105E0D9022348
:1056B0000748C8F80030FBF71BFCA800FBF748FBC5
:1056C000BDE8F8430348FBF7F3BB00BF68140020B4
:1056D000F0B00008ACB20008AC1C002000000000D4
:1056E000F8B504461B48FFF7A3F91B48FFF7A0F9DC
:1056F000202383F31188194DAB699E6B3046FBF76D
:1057000077FF174BAA691946536203E09F689068B8
:10571000874202D31B688B42F8D159680720C2E93F
:1057200000310A605A60FDF7BBFCAB695B6A01336C
:1057300002D03046FFF704F9002383F31188207864
:10574000FBF716FB0448FDF7DBF9BDE8F84001481C
:10575000FDF7D6B93C0800202C080020B009002035
:105760000008002000000000000000000000000011
:1057700070B505461648FFF75BF9202383F31188BF
:10578000144B9C69A66B3046FBF732FF124A6262EB
:10579000134603E09868A168884202D31B689342CD
:1057A000F8D15A680720C4E9003214605C60FDF744
:1057B00077FC3046FFF7C4F8002383F3118828787C
:1057C000FBF7D6FABDE870400148FDF799B900BF74
:1057D0002C080020B0090020000800200000000074
:1057E00038B5064D04462846FFF722F92078FBF726
:1057F000BFFA2846BDE83840FDF782B93C080020D2
:105800002DE9F843424D434EAA69434B94684348FF
:10581000434A444F04F101084FF0020C414604EBA7
:105820000C09C6F800C0FDF783FB494684463E4B91
:105830003E4A3F48C7F800C0FDF77AFB0323024603
:105840003C4833607A60FFF7F3F8AB693A499868EF
:10585000001BB0FA80F04009FBF7E2F908B1BDE89F
:10586000F88304234FF47A703360FEF799FBAB6939
:1058700031499868A0EB0800B0FA80F04009FBF7C6
:10588000CFF90028EBD105232C483360FFF7D0F87F
:10589000AB6929499868A0EB0800B0FA80F040098C
:1058A000FBF7BEF90028DAD106234FF47A70336093
:1058B000FEF776FBAB6920499868A0EB0900B0FAC7
:1058C00080F04009FBF7ACF90028C8D107231B483A
:1058D0003360FDF715F9AB6917499868A0EB08002C
:1058E000B0FA80F04009FBF79BF90028B7D10823F4
:1058F00010483360FDF704F9AB690F499868001B45
:10590000B0FA80F0BDE8F8434009FBF789B900BF61
:10591000B0090020AC1C0020BCB200089815002083
:1059200041590008C41C0020C0B20008014A000808
:10593000E01600202C08002014AF00083C080020CE
:1059400010B5064C4FF4FA70FEF72AFB2046FFF71D
:105950006FF82046BDE81040FDF7D2B82C080020B3
:1059600038B5064D04462846FFF762F82078FBF765
:10597000FFF92846BDE83840FDF7C2B82C080020E2
:1059800038B5144D04462846FFF752F86368013BCA
:1059900063609BB905F12802134619461B689342C0
:1059A00011D09C42F9D123680B60202383F3118826
:1059B000EB6A23600023EC6283F31188BDE8384072
:1059C0000448FDF79DB8202383F311880023EA6A79
:1059D0001A60FFDE3012002000000000000000000E
:1059E000F8B5434C01252560FFF7BAFAB0FA80F00C
:1059F00040494009FBF714F900B1F8BD02232360C8
:105A0000FFF78EFA0646003818BF01203A49FBF727
:105A100007F90028F1D103232360FFF781FAB0FAD8
:105A200080F036494009FBF7FBF80028E5D1042354
:105A30002360FFF795FA0746003818BF0120304968
:105A4000FBF7EEF80028D8D1F01BB0FA80F02D4912
:105A50004009FBF7E5F80028CFD178682949A0F183
:105A60000200B0FA80F04009FBF7DAF80028C4D150
:105A70007B6824492B4428467B60FBF7D1F800283B
:105A8000BBD178681F49A0F10300B0FA80F040094B
:105A9000FBF7C6F80028B0D13846FFF771FF7868E9
:105AA0001949A0F10200B0FA80F04009FBF7B8F8FC
:105AB0000028A2D13846FFF763FF70681249401BE7
:105AC000B0FA80F04009FBF7ABF8002895D13046DA
:105AD00005232360FFF754FF06232360FFF740FAF6
